:020000040800F2
:10000000000002209D49030809A100080DA1000875
:1000100011A1000815A1000819A1000800000000A6
:100020000000000000000000000000001DA100080A
:1000300021A100080000000025A1000829A1000856
:10004000ED490308ED490308ED490308ED490308AC
:10005000ED490308ED490308ED490308ED4903089C
:10006000ED490308ED490308ED490308ED4903088C
:10007000ED490308ED490308ED490308ED4903087C
:10008000ED490308ED49030839A10008ED490308CB
:10009000ED490308ED490308ED490308ED4903085C
:1000A000ED49030845A10008ED490308ED4903089F
:1000B00051A100085DA1000869A10008ED490308ED
:1000C000ED490308ED490308ED490308ED4903082C
:1000D000ED49030875A10008ED490308ED4903083F
:1000E000ED490308ED490308ED490308ED4903080C
:1000F00081A100088DA10008ED490308ED4903081E
:10010000ED49030899A10008ED490308ED490308EA
:10011000ED490308ED490308A5A10008C1A10008A5
:10012000ED490308ED490308ED490308CDA1000896
:10013000ED490308ED490308ED490308ED490308BB
:10014000ED490308ED490308ED490308D9A100086A
:10015000ED490308ED490308ED490308ED4903089B
:10016000ED490308ED490308ED490308ED4903088B
:10017000ED490308ED490308ED49030800000000BC
:08018000ED490308ED490308F5
:1001C0000348044B834202D0034B03B118477047E6
:1001D000540600205406002000000000054806498F
:1001E0000B1AD90F01EBA301491002D0034B03B145
:1001F00018477047540600205406002000000000F5
:1002000010B5064C237843B9FFF7DAFF044B13B15E
:100210000448AFF300800123237010BD580600206E
:1002200000000000F049030808B5044B1BB1044965
:100230000448AFF30080BDE80840CFE700000000AD
:100240005C060020F049030800B50A4C2668054604
:1002500085B01C46F06852B1074B0091CDE90132E0
:1002600006492B46224600F027F801F087FE044B92
:100270001A46F2E700000020F097030800980308F0
:100280002C4D030808B513460022FFF7DDFF00BF21
:10029000014B1868704700BF000000200CB400B587
:1002A00083B004AB53F8042B019300F09DFA03B024
:1002B0005DF804EB02B070470EB410B583B005AB27
:1002C000064C53F8042B01930146206800F08CFA89
:1002D00003B0BDE8104003B0704700BF000000202D
:1002E00070B50D4E0D4D761BB61006D000240134AE
:1002F00055F8043B9847A642F9D1094E094D761BA3
:1003000034F076FBB61006D00024013455F8043BD7
:100310009847A642F9D170BD749A0308749A0308ED
:10032000789A0308749A0308024B0146186800F093
:10033000B3B900BF00000020024B0146186800F06E
:1003400055B900BF00000020844641EA000313F0C5
:1003500003036DD1403A41D351F8043B40F8043BCC
:1003600051F8043B40F8043B51F8043B40F8043B8F
:1003700051F8043B40F8043B51F8043B40F8043B7F
:1003800051F8043B40F8043B51F8043B40F8043B6F
:1003900051F8043B40F8043B51F8043B40F8043B5F
:1003A00051F8043B40F8043B51F8043B40F8043B4F
:1003B00051F8043B40F8043B51F8043B40F8043B3F
:1003C00051F8043B40F8043B51F8043B40F8043B2F
:1003D00051F8043B40F8043B403ABDD2303211D3CF
:1003E00051F8043B40F8043B51F8043B40F8043B0F
:1003F00051F8043B40F8043B51F8043B40F8043BFF
:10040000103AEDD20C3205D351F8043B40F8043BCE
:10041000043AF9D2043208D0D2071CBF11F8013BCC
:1004200000F8013B01D30B8803806046704700BF92
:10043000082A13D38B078DD010F003038AD0C3F1A1
:100440000403D21ADB071CBF11F8013B00F8013B83
:1004500080D331F8023B20F8023B7BE7043AD9D342
:10046000013A11F8013B00F8013BF9D20B78037017
:100470004B7843708B788370604670478842F0B445
:100480000DD98B1883420AD9841832B1224613F849
:10049000014D02F8014D9942F9D1F0BC70470F2A85
:1004A0000ED80346541E002AF7D001340C44013BF9
:1004B00011F8012B03F8012FA142F9D1F0BC7047CC
:1004C00040EA01039B073BD1A2F110073F0901F16C
:1004D000200606EB071601F1100300F1100453F893
:1004E000105C44F8105C53F80C5C44F80C5C53F856
:1004F000085C44F8085C53F8045C44F8045C10336E
:10050000B34204F11004EAD17B1C1B0112F00C0F62
:10051000194402F00F05034415D0043DAD0803EB68
:10052000850C1C1F0E4656F8047B44F8047F644576
:10053000F9D10135AD002B44294402F00302B1E7A3
:10054000541E0346B1E72A46ACE700BFF0B4860765
:1005500046D0541E002A3CD0CAB2034602E014F131
:10056000FF3436D303F8012B9D07F8D1032C29D98A
:10057000CDB245EA05250F2C45EA054533D9A4F14E
:100580001006360903F1200707EB061703F11002E6
:1005900042E9045542E902551032BA42F8D1721CC0
:1005A00014F00C0F03EB021204F00F0613D0331FEC
:1005B00023F003030433134442F8045B9342FBD15A
:1005C00006F003042CB1C9B21C4403F8011B9C4281
:1005D000FBD1F0BC704734461346002CF3D1F8E74A
:1005E00014460346C2E71A462646E0E700293CD0F7
:1005F00038B551F8043C0C1F002BB8BFE418054671
:1006000003F076F9234B1A682AB1A2420DD921686A
:100610006018824223D0626028461C60BDE83840E2
:1006200003F068B9A34203D81A465368002BF9D1E6
:1006300011685018A04219D024D82168601883424C
:1006400006D0636054602846BDE8384003F052B9D4
:10065000D3E900030144636021605460F3E7D2E909
:100660000002014462602160D6E7704720680144BF
:10067000501883421160E6D1D3E90003014453606E
:100680001160E0E70C232B602846BDE8384003F0FA
:1006900031B900BF74060020F8B5CD1C25F0030564
:1006A00008350C2D38BF0C25002D064633DBA9423A
:1006B00031D82A4F03F01CF93A6852B113685B1B1A
:1006C00004D43FE023685B1B29D522465468002CE4
:1006D000F8D1796800293BD02946304600F030FF38
:1006E000431C28D0C41C24F00304A04205D0211AC6
:1006F000304600F025FF01301DD02560304603F064
:10070000F9F804F10B0020F00700231DC21A01D0F4
:100710001B1AA350F8BD0C2232600020F8BD0B2B31
:1007200005D8A242636811D05360E7E714462360FE
:100730001C442560E2E70C233046336003F0DAF80E
:100740000020F8BD0B2BF1D8536814463B60D5E769
:10075000304600F0F5FE7860BEE700BF740600206A
:100760009368013B002B936011DA10B49469A342A3
:1007700009DB0A2907D01368581C10601970084655
:100780005DF8044B70475DF8044B01F001BB136842
:10079000581C106019700846704700BF9BB1F8B52F
:1007A00013440F4606465D1E541E01E0AC4208D0BD
:1007B0003A4614F8011F3046FFF7D2FF431CF5D12B
:1007C000F8BD0020F8BD0020704700BF936810B549
:1007D000144613B95360184610BD02F0C7FD00233C
:1007E000C4E9013310BD00BF2DE9F04F9FB08B4627
:1007F00090461C46039018B18369002B00F0B78027
:10080000A24B9B4500F0B980A14B9B4500F0C780EF
:10081000A04B9B4504BF039BD3F80CB0BBF80C3036
:10082000180740F1B280DBF81030002B00F0AD80EB
:1008300030238DF8323098F80030059400212022C2
:100840000B918DF83120944E0127002B00F087800A
:10085000252B00F01581454603E0252B00F0A380F1
:1008600025466B786C1C002BF7D1B4EB080A76D0C8
:100870004246534659460398FFF790FF01306ED029
:100880000B9B6A7853440B93002A68D000234FF0E7
:10089000FF3201340693CDE908338DF85B301C93A9
:1008A000079205E0069A07FA03F313432C460693D2
:1008B0002546052215F8011B304602F0C9FFAA465D
:1008C000831B0028EED1069BD90644BF20228DF859
:1008D0005B2021781A0744BF2B228DF85B202A2940
:1008E00066D1059A1168043200290592C0F29D80F4
:1008F00009916178A51C2E2973D0684C03222046EB
:1009000002F0A6FF002800F08680001B069B402412
:1009100004FA00F00343069305F1010829786048C2
:100920008DF83010062202F093FF002800F083803B
:100930005C4B002B72D005AB00935A465A4B039880
:1009400006A900F083F98146B9F1FF3F07D00B9B60
:100950004B440B9398F80030002B7FF479AFBBF831
:100960000C305B0618D40B981FB0BDE8F08F02F076
:10097000DDFC464B9B457FF447AF039BD3F804B0A7
:10098000BBF80C3018073FF54EAF5946039801F0FD
:1009900075FA00283FF44CAF4FF0FF30E4E7039BBB
:1009A000D3F808B03AE7B4EB080A3FF46FAF5FE75B
:1009B000A1F13002092A88BFA2469CD8099B01E018
:1009C0002C460135297803EB830302EB4303A1F1A5
:1009D0003002092AAA46F3D92E2904F10205099307
:1009E0008BD19AF801102A292FD1059B9AF8021071
:1009F0001A6807920433002A05930AF103050AF1E5
:100A0000020338DB254C032220469A4602F020FFE1
:100A100000287FF47AAFA84655467FE7059B073349
:100A200023F007030833059391E7494243F002039B
:100A3000099106935DE705AB00935A461A4B03985C
:100A400006A900F031FC81467EE7A1F130020023C7
:100A5000092A079301D915E05546697803EB83030A
:100A600002EB4303A1F13002092A05F1010AF3D98F
:100A70000235079341E74FF0FF329A4607923CE771
:100A8000444603E7AA46013537E700BF4C4A03084E
:100A90002C4A03080C4A03083098030838980308C6
:100AA0003C9803084D0C00089D07000810B4044C46
:100AB00013460A46014620685DF8044BFFF794BED2
:100AC000000000202DE9F04757EC106B84B0002F98
:100AD000894692461946DDE90D545EDB0023662DFA
:100AE0000B7018D0462D16D025F02003452B36D09C
:100AF00003AA02ABCDE9003202210C9B4A4647EC27
:100B0000106B01F0E7FA672D804636D11AF0010F1D
:100B100035D1039B1CE003AA02ABCDE900320321CF
:100B20000C9B4A4647EC106B01F0D4FA804600EB70
:100B3000090598F80030302B34D00C9B1B681D44FD
:100B4000304639460022002305F084FAD0B12B4606
:100B5000A3EB08034046236004B0BDE8F08703A977
:100B600002AB09F10109CDE900314A460C9B022193
:100B700047EC106B01F0AEFA8046472DC6D008EB6B
:100B80000905DDE7039B9D42E2D930215A1C0392FF
:100B90001970039BAB42F9D3DAE707F100431F4614
:100BA0002D239CE7002200233046394605F052FAF7
:100BB0000028C2D10C9AC9F101031360BFE700BF3E
:100BC000F0B400290446BABF49422D232B2309293A
:100BD00004F8022B82B043702DDD0DF10706354677
:100BE000194F01E01546194687FB0132CB17C3EBBD
:100BF000A20303EB8302A1EB42023032632905F822
:100C0000012C05F1FF32EDDC3033A91EDBB28E4240
:100C100002F8013C0BD9214601E012F8013B01F832
:100C2000013BB242F9D10DF109035D1B2C44201A9E
:100C300002B0F0BC704730313023041DC1708370A6
:100C4000201A02B0F0BC7047676666662DE9F04F67
:100C50008DB00C46DDF8588016461F46054602F05A
:100C60005BFD03680693184600F0EAFF00230A9331
:100C7000D8F800300790073323F0070393ED007B8B
:100C800008338DED047BD4F800B094F818A0C8F8B0
:100C90000030DDE9042323F000499046104684ED3E
:100CA000127B49464FF0FF32AF4B05F005FA40B9D1
:100CB000404649464FF0FF32AB4B05F0DFF90028C4
:100CC0007BD0DDE9040102460B4605F0F5F900286A
:100CD00040F035826168481C4BF480622CD0BAF138
:100CE000670F64D0BAF1470F61D0002322600AA8D1
:100CF000039309AB02900093CDF804A00DF12303F8
:100D00009DED040B2846FFF7DDFE8046BAF1650F26
:100D1000099B33D8013B1946524604F15000099310
:100D2000FFF74EFF0A9A1318012A8146236140F308
:100D30007E810133236133E006216160002322605C
:100D40000AA8039309AB02900093CDF804A00DF11B
:100D500023039DED040B2846FFF7B4FE0AF0DF03E2
:100D6000472B8046D2D1099BD91C80F2E280AAF1A0
:100D7000020A5FFA8AFABAF1650FCBD9BAF1660FA7
:100D800000F0DE800A9A9A4240F3E580002BD4BF3F
:100D9000C3F1020101210A442261A3654FF0000959
:100DA0009DF823300BB32D2384F843301DE0002938
:100DB00040F0138101216160C0E7DDE904010022F8
:100DC000002305F051F910B12D2384F84330674812
:100DD00067492BF0040203232260BAF1470F94BF46
:100DE0008046884623614FF00009009733460BAADE
:100DF0002146284600F0C2F9013024D02368580566
:100E00002CD42369424631462846B84701301AD0CF
:100E100022680B98E36892071AD51A1A002A17DD80
:100E200004F119094FF0000804E0E3680B981A1A5E
:100E300042450DDD01234A4631462846B847013078
:100E400008F10108F1D14FF0FF300DB0BDE8F08F8F
:100E50009842B8BF18460DB0BDE8F08FBAF1650FE3
:100E600033D900220023D4E9120105F0F3F8002859
:100E700000F0828001233F4A31462846B8470130BE
:100E8000E1D0DDE909239A4202DB2268D107C0D50F
:100E9000DDE9062331462846B8470130D3D00A9B06
:100EA000012BB5DD04F11A094FF0000803E00A9B9D
:100EB000013B4345ACDD01234A4631462846B8474D
:100EC000013008F10108F2D1BDE70A9A012A40F386
:100ED0009A800123424631462846B8470130B2D0B5
:100EE000DDE9062331462846B8470130ABD0002261
:100EF0000023D4E91201DDF828A005F0ABF80028A2
:100F000000F09080BAF1010F40F3888004F11A0AD2
:100F10004FF0000803E00A9B013B43457EDD0123BF
:100F2000524631462846B847013008F10108F2D14F
:100F300089E7626893423FF71AAF4FF0670A21E7EB
:100F4000002B626878DD2361002A00F0A680013260
:100F50001A44226121E722682361D2077FF51DAF81
:100F60005A1C226119E700BFFFFFEF7F4498030876
:100F700048980308F08F0308099B002B63DD0A9B48
:100F8000D4F858A05345A8BF5346002B9B4608DD14
:100F9000424631462846B84701303FF454AFD4F8B2
:100FA00058A02BEAEB7BAAEB0B03002B40F38280CB
:100FB00004F11A034FF000099A4604E0A36DA3EB75
:100FC0000B024A4575DD0123524631462846B84793
:100FD000013009F10109F1D135E7002322600AA8A7
:100FE000039309AB02900093CDF804A00DF1230305
:100FF0009DED040B2846FFF765FD099BD91C804633
:10100000FFF6B5AE95E7D9073FF563AF424601233A
:1010100031462846B84701303FF415AF4B4604F13E
:101020005002F0E60AF1FF3308F10102F0E722680E
:10103000D2077FF5B5AE7CE6002A33D12168C90717
:1010400030D40122A8E60123494A31462846B84750
:1010500001303FF4F8AEDDE90923134324D0DDE984
:10106000062331462846B84701303FF4ECAE099BD1
:10107000002B79DA04F11A0A4FF0000903E0099B0A
:101080005B424B4570DD0123524631462846B84746
:10109000013009F10109F2D1D5E62168C8077FF5D1
:1010A0007CAE54E7023277E62268D3077FF5B1AE13
:1010B000D5E79A46DDE909218A4202DB2368D80791
:1010C00009D5DDE9062331462846B84701303FF40B
:1010D000BAAEDDE909215245A1EB0203D4BFA1EB71
:1010E0000A099946B9F1000F0BDD08EB0A024B46DD
:1010F00031462846B84701303FF4A5AEDDE9092363
:101100009B1A29EAE979A3EB0903002B7FF780AE4C
:1011100004F11A0A4FF0000807E0DDE909239B1AE1
:10112000A3EB090343457FF773AE012352463146D3
:101130002846B847013008F10108EED183E6059B47
:101140000C490D4A002BBCBF2D2384F843302BF0F3
:10115000040323600323BAF1470F94BF88469046E7
:1011600023614FF0000940E642460A9B4BE600BF70
:10117000F08F03084C980308509803082DE9F047B6
:101180000C4691460A698968DDF820808A42B8BF1A
:101190000A46C9F8002094F8431006461F4611B1CC
:1011A0000132C9F80020236899065CD5D9F80020DF
:1011B0000232C9F80020236813F0060F19461DD12A
:1011C000E1688A1A002AD8BF194617DD04F1190A06
:1011D000002505E0E368D9F800209B1AAB420CDD3E
:1011E0000123524639463046C047013005F101051A
:1011F000F0D14FF0FF30BDE8F087216894F843301C
:10120000003318BF01238A060AD5E1185A1C302082
:1012100081F84300224494F8451082F843100233C9
:1012200004F1430239463046C0470130E1D023681B
:10123000A268216903F00603042B1DD08A4226DD33
:101240004FF00009521A91441A34002501E04D452F
:101250001DDA0123224639463046C047013005F1E8
:101260000105F4D1C5E713F0060F13D094F843300D
:10127000003318BF0123D3E7D9F80000E3688A429E
:10128000A3EB000323EAE379DCDC002BDCDC0020A9
:10129000BDE8F087E168D9F800208A1A002AD8BF93
:1012A000194693DCAAE700BF2DE9F0430C46097EFE
:1012B00085B06E29064617460C98984604F1430EF1
:1012C0006DD039D9732900F0F68044D9752900F022
:1012D0000481782940F0118178232268DFF858C210
:1012E00084F845300168150651F8043B016040F16F
:1012F000A180D10744BF42F020022260002B00F001
:1013000093801022002184F843106068A0600028B8
:10131000C0F2C880216821F004012160002B40F058
:10132000A380002840F0C0807546082A00F0AC80F9
:10133000AEEB0503236141E0632900F0E5801AD894
:10134000002938D0582940F0D88084F84510226808
:10135000DFF8E8C1C6E76F2900F0BF80702940F0D0
:10136000CC802268DFF8D0C142F0200278232260CE
:1013700084F84530B6E7642902D0692940F0BD8081
:1013800022680368110603F1040557D51968056042
:101390000B46002959DBDFF8A4C10A22B5E7036830
:1013A000226861691D1D056015061B6802D4500680
:1013B00000F1BD801960002375462361CDF80080DF
:1013C0003B4603AA21463046FFF7D8FE013020D025
:1013D0002A46236939463046C047013019D0226871
:1013E0000398E368920719D51A1A002A16DD04F14A
:1013F0001909002504E0E36803981A1AAA420DDDD2
:1014000001234A4639463046C047013005F10105FF
:10141000F1D14FF0FF3005B0BDE8F0839842B8BF7E
:10142000184605B0BDE8F083226822F02002226051
:10143000102267E7500648BF9BB25AE75106A5D570
:10144000B3F9003005601946A3E76168A1602D205B
:101450000029C3F1000384F8430002DB22F00402F8
:101460002260DFF8D8C00A22754600E00B46B3FBC5
:10147000F2F102FB113093421CF8000005F8010D57
:10148000F4D2082A7FF454AF2368DB077FF550AF0E
:10149000626823699A423FF74BAF302305F8013C5D
:1014A000013D45E7002BDFD19CF8003084F8423045
:1014B00004F1420539E703686268191D01601D687F
:1014C0000021284602F0C4F9002832D0401B606099
:1014D0002061002384F8433070E72268036812F02B
:1014E000800F03F104051AD01B6805606F290CBF3B
:1014F00008220A22DFF844C004E7012384F84210DE
:10150000236104F14205E4E703681A68191D012309
:10151000016004F1420584F842202361D9E712F00A
:10152000400F0DBF1B6805601B880560DEE7198052
:1015300041E76068CCE700BF689803085498030847
:1015400038B5074C002305460846236008F06CFDBB
:10155000431C00D038BD2368002BFBD02B6038BD66
:1015600098FA002008B430B5002A9CB0044635DB58
:101570004FF4027302910691ADF8143020A918D0EF
:10158000013A0B460492079201911F9A4FF6FF759C
:1015900002A9ADF8165002F0DBFF421C01DA8B23E2
:1015A0002360029B00221A701CB0BDE8304001B0DD
:1015B00070470B460492079201914FF6FF751F9AF0
:1015C000ADF8165002A902F0C3FF431C01DA8B23C9
:1015D00023601CB0BDE8304001B070478B22026030
:1015E0004FF0FF30F5E700BF0CB430B5204B0029B9
:1015F0009DB01C6837DB4FF4027302900690ADF883
:10160000143021A819D001390346209A049107917A
:1016100001904FF6FF7502A92046ADF8165002F072
:1016200097FF421C01DA8B232360029B00221A7071
:101630001DB0BDE8304002B07047034604910791E9
:1016400001904FF6FF75209AADF8165002A920467A
:1016500002F07EFF431C01DA8B2323601DB0BDE83E
:10166000304002B070478B2323604FF0FF30F5E726
:10167000000000200EB470B59DB021AC4FF4017293
:1016800054F8045BADF814200290069000F0D8FAEC
:101690000C4B019401462A46039107910A4E1868A3
:1016A0000B9623464FF6FF75002402A90F9414945D
:1016B000ADF8165003F0E2F81DB0BDE8704003B07D
:1016C000704700BF00000020451700080CB470B53B
:1016D0009CB020AC05464FF40173084654F8046BE7
:1016E00002910691ADF8143000F0AAFA0146324694
:1016F000234601940391002407912846074E0B9638
:101700004FF6FF7502A90F941494ADF8165003F02C
:10171000B5F81CB0BDE8704002B07047451700082E
:1017200010B50C46B1F90E1003F0D0FB002803DB16
:10173000636D0344636510BDA38923F48053A381C3
:1017400010BD00BF002070472DE9F0411646B1F9E9
:101750000C201F46D3050C460546B1F90E1009D4DE
:1017600022F48052A2813B4632462846BDE8F04131
:1017700000F06EBB0022022301F0D6FFB4F90C206A
:10178000B4F90E10ECE700BF10B50C46B1F90E101D
:1017900001F0CAFFA389421C0EBF23F4805343F417
:1017A00080536065A38110BDB1F90E1000F0EEBB4F
:1017B000C9B200F00303002935D07BB10378002BB8
:1017C00057D0994252D0431C05E013F8012B002A50
:1017D0004DD08A424AD09A071846F6D170B441EAF1
:1017E0000126046846EA064601E050F8044F86EAFE
:1017F0000405A5F10132A4F1013322EA050223EA2E
:101800000403134313F0803FEFD0037843B19942B0
:1018100002D106E08B4204D010F8013F002BF9D131
:10182000184670BC70474BB10378FBB1431C02E013
:1018300002780133D2B199071846F9D10268A2F1B2
:10184000013323EA020313F0803F08D150F8042F3C
:10185000A2F1013323EA020313F0803FF6D00378AC
:1018600023B110F8013F002BFBD1704770471046A1
:1018700070471846704700BF0000000000000000DD
:10188000A2EB0300704700BF02780B78012A28BF43
:101890009A42F5D16DE9044540EA0104CDE90267B9
:1018A0006FF0000C4FEA447212B380EA010414F0A6
:1018B000070F6AD100F0070420F0070004F00305C9
:1018C00021F007014FEAC505F0E8042314F0040FE6
:1018D000F1E804670CFA05F462EA040266EA040619
:1018E0000AD063EA0403624667EA0407664603E037
:1018F000F0E80423F1E8046782FA4CF582EA060472
:10190000A4FA8CF46CBB83FA4CF583EA0705A5FABC
:101910008CF595B950E9022351E9026782FA4CF53A
:1019200082EA0604A4FA8CF483FA4CF583EA0705EC
:10193000A5FA8CF52543DBD09CB92DBAB5FA85F410
:1019400024F0070427FA04F1DDE9026723FA04F31F
:1019500003F0FF0001F0FF01FDE80445A0EB0100EA
:10196000704724BAB4FA84F424F0070426FA04F188
:10197000DDE9026722FA04F202F0FF0001F0FF0144
:10198000FDE80445A0EB0100704714F0030F3CD1C3
:1019900010F0030428D150F8082B51F8083B82FAC4
:1019A0004CF582EA0305A5FA8CF55DB950F8042CD4
:1019B00051F8043C82FA4CF582EA0305A5FA8CF54D
:1019C000002DE8D02DBAB5FA85F424F0070423FAE7
:1019D00004F122FA04F202F0FF0001F0FF01FDE839
:1019E0000445A0EB010070474FEAC40420F0030057
:1019F00050F8082B21F0030151F8083B0CFA04F4CD
:101A000062EA040263EA0403C9E710F003041AD08F
:101A1000A1EB040120F00300E40750F8042B06D0EA
:101A20000FD28B785FFAA2F4E41A06D12BB1CB78EF
:101A30005FFAB2F4E41A00D11BB920465DF8104BEE
:101A4000704701F1040150F8042BCC0721F0030189
:101A500051F8043B48D824D222F07F4482FA4CF556
:101A600094EA1325A5FA8CF50AD165B951F8043B1F
:101A700084EA0204B4EB036F0ED150F8042BEBE7B9
:101A80004FEA132355E035F07F454DD10878FDE846
:101A90000445C0F1000070474FEA126203F0FF03F3
:101AA00047E002EA1C4482FA4CF594EA1345A5FA91
:101AB0008CF50AD165B951F8043B84EA0204B4EB11
:101AC000034F0CD150F8042BEBE74FEA134330E0FF
:101AD00015EA1C4528D10B884FEA124229E04FEA4B
:101AE000124203EA1C4324E002F0FF0482FA4CF5A0
:101AF00094EA1365A5FA8CF50AD165B951F8043B4F
:101B000084EA0204B4EB032F09D150F8042BEBE76D
:101B10004FEA13630DE015F0FF0F05D10B684FEA94
:101B2000122223F07F4304E04FF00000FDE804455B
:101B3000704712BA1BBA82FA4CF482EA0304A4FA80
:101B40008CF5B5FA85F402FA04F203FA04F34FEACD
:101B50001260FDE80445A0EB1360704780EA0102C3
:101B6000844612F0030F4FD111F0030F32D14DF81C
:101B7000044D11F0040F51F8043B0BD0A3F10132D6
:101B80009A4312F0803F04BF4CF8043B51F8043BE9
:101B900016D100BF51F8044BA3F101329A4312F061
:101BA000803FA4F101320BD14CF8043BA24312F068
:101BB000803F04BF51F8043B4CF8044BEAD0234665
:101BC0000CF8013B13F0FF0F4FEA3323F8D15DF817
:101BD000044B704711F0010F06D011F8012B0CF8DF
:101BE000012B002A08BF704711F0020FBFD031F857
:101BF000022B12F0FF0F16BF2CF8022B8CF80020DE
:101C000012F47F4FB3D1704711F8012B0CF8012B60
:101C1000002AF9D1704700BF00000000000000005A
:101C200000000000000000000000000000000000B4
:101C300000000000000000000000000000000000A4
:101C400090F800F06DE9024520F007016FF0000CFC
:101C500010F0070491F820F040F049804FF00004A4
:101C60006FF00700D1E9002391F840F000F108007F
:101C700082FA4CF2A4FA8CF283FA4CF3A2FA8CF3B7
:101C80004BBBD1E9022382FA4CF200F10800A4FA1E
:101C90008CF283FA4CF3A2FA8CF3E3B9D1E9042372
:101CA00082FA4CF200F10800A4FA8CF283FA4CF3A9
:101CB000A2FA8CF37BB9D1E9062301F1200182FA63
:101CC0004CF200F10800A4FA8CF283FA4CF3A2FA69
:101CD0008CF3002BC6D0002A04BF04301A4612BA77
:101CE000B2FA82F2FDE8024500EBD2007047D1E97A
:101CF000002304F00305C4F100004FEAC50514F009
:101D0000040F91F840F00CFA05F562EA05021CBFD9
:101D100063EA050362464FF00004A9E770B440EAA5
:101D20000104A30727D1032A25D90B4606461946E5
:101D300053F8045BA5F1013424EA050414F0803F54
:101D400006D1043A032A46F8045B1946EFD882B15B
:101D500033460C7803F8014B551E74B132442E44BF
:101D600005E011F8014FF51A03F8014B2CB19A4226
:101D7000F7D170BC70470646E9E7002DF9D01D4445
:101D8000002203F8012BAB42FBD170BC704700BFAF
:101D9000F8B50D461446064608B1836943B3254B92
:101DA0009C422AD0244B9C4229D0244B9C4208BF01
:101DB000F468A389A269A2601A0722D5236903B334
:101DC00022686169D31AEDB299422F4629DD0133A9
:101DD000A168501C0139A1602060157062699A42A7
:101DE00016D0A389DB0701D50A2D11D03846F8BDDE
:101DF00001F09CFA0F4B9C42D4D17468D9E7B468C7
:101E0000D7E72146304600F039F838B92369D7E7DB
:101E10002146304601F060F90028E7D04FF0FF3747
:101E2000E4E72146304601F057F90028F6D1226850
:101E30000123CDE74C4A03082C4A03080C4A030847
:101E4000024B0A4601461868FFF7A2BF00000020B7
:101E500070B50D46084C114606461A462846002322
:101E6000236004F021FB431C00D070BD2368002BCD
:101E7000FBD0336070BD00BF98FA00203B4B70B5BB
:101E80001D6806460C460DB1AB69DBB1384B9C4270
:101E90001ED0384B9C424AD0374B9C4208BFEC685E
:101EA000B4F90C2093B2190718D5206908B313F0C0
:101EB00001022CD0636900225B42A361A26060B37F
:101EC000002070BD284601F031FA294B9C42E0D138
:101ED0006C68B4F90C2093B21907E6D4DD063CD542
:101EE000580726D4206942F00803A3819BB200283A
:101EF000DDD103F42072B2F5007FD8D03046214600
:101F000001F056FCA389206913F00102D2D1990790
:101F100058BF6269A2600028D2D1B4F90C301A0609
:101F2000CFD543F04003A3814FF0FF3070BDAC68C4
:101F3000B6E7616B51B104F14403994204D03046D5
:101F4000FEF754FBB4F90C200023636300232069DF
:101F5000636022F024022060C5E742F040020923BA
:101F600033604FF0FF30A28170BD00BF0000002041
:101F70004C4A03082C4A03080C4A030808B50620FB
:101F800003F078F8012004F07BFA00BF38B5074C65
:101F9000002305460846236004F094FA431C00D051
:101FA00038BD2368002BFBD02B6038BD98FA002089
:101FB0002DE9F04F03690F69BB4283B0C0F2868000
:101FC000013F01F1140600F1140A56F827305AF8BF
:101FD0002720BC000133009406EB04099A425444C4
:101FE000B2FBF3F801943AD300252A46B646D4460C
:101FF0005EF8044BDCF800301FFA84FB08FB0B553D
:102000004FEA154B240C08FB04B4ADB2551BA2B229
:10201000C2EB134215FA83F302EB23429BB243EA6D
:102020000243F1454FEA14454CF8043B4FEA224283
:10203000DED2009B5AF803308BB9019A131F9A45E0
:102040000CD252F8043C4BB9A2F1080302E01A6822
:10205000043B1AB99A4507F1FF37F8D307610446E4
:1020600001F028FF00282DDB08F10108504600236D
:1020700056F8041B05688AB29A1A0B0C12FA85F2FC
:10208000C3EB154303EB224392B242EA0342B1454C
:1020900040F8042B4FEA2343EAD25AF827200AEBF0
:1020A00087037AB91A1F92450BD253F8042C42B910
:1020B000083B02E01A68043B1AB99A4507F1FF375A
:1020C000F8D32761404603B0BDE8F08F002003B08D
:1020D000BDE8F08F2DE9F04F55EC104B97B0466AF4
:1020E000209F039182460A920793CDE90045002E76
:1020F00000F03683316851B172684A600123934021
:102100008B6001F039FCDAF8243000221A602E1EB0
:10211000B4BF012300233B60774BBCBF26F00046D1
:102120000196B34300F0B0809DED007B00220023B8
:1021300051EC170B8DED047B03F08CFF054678B155
:10214000079A01231360219B002B00F023836B4B24
:10215000219A1360013B0293029817B0BDE8F08FFB
:10216000DDE9047814AA15A948EC107B504601F06B
:10217000D5FF340D834640F09D80DDE914542C4496
:1021800004F23243202B40F3CD83C3F140039E4041
:10219000009B04F2124023FA00F0304303F078FC75
:1021A000A1F1F87301210246013C0E911046194637
:1021B0000022534B03F02EFB49A3D3E9002303F085
:1021C000E1FC49A3D3E9002303F026FB06462046A1
:1021D0000F4603F06DFC46A3D3E9002303F0D2FCC5
:1021E00002460B463046394603F016FB06460F46BC
:1021F00003F078FF0022814600233046394603F081
:1022000033FF002840F0B9822C1BB9F1160F04F1FE
:10221000FF3800F299823B4B03EBC903D3E900235B
:10222000DDE9040103F020FF002871D00023B8F19C
:10223000000F09F1FF390D93C0F28C82002309933E
:10224000B9F1000F6ADA099BCDF81890A3EB0903E6
:102250000993C9F100030C93039BDAF82400092BBE
:102260004FF0000964D8052B40F35A83043B0393D5
:102270000024039B023B032B00F26486DFE813F08B
:10228000660463043E045604079A42F20F73136017
:10229000009BC6F31306334318D1219B002B00F09B
:1022A0006086194B02930833219A0298136017B085
:1022B000BDE8F08FC8F3130141F07F530E953A4605
:1022C000A4F2FF3443F44013149D6FE7219B002BCD
:1022D00040F003840D4B02933EE700BFAFF3008054
:1022E00061436F63A787D23FB3C8608B288AC63F1C
:1022F000FB799F501344D33F0000F07FF18F030818
:102300000000F83F804A03087C9803088898030877
:10231000B8F1000FC0F2A3840D90099000230C9334
:10232000039BCDF81890092BC844DAF824009AD9F9
:10233000002301240393CDE90A344FF0FF330893BF
:102340000021089B41600F93504601F0D5FA02909E
:10235000002800F0FF85DAF82430029A1A60089B02
:102360000E2B00F20A81002C00F00781069900294B
:1023700040F37784B14B01F00F0203EBC20393EDFE
:10238000007B0C11E2068DED107B40F11484AC4B08
:10239000DDE90401D3E9082303F01EFDCDE90001C6
:1023A00004F00F0403267CB1DDE91001A44DE3071E
:1023B00004D5D5E9002303F0E5FB0136641005F1EF
:1023C0000805F4D1CDE91001DDE90001DDE91023B4
:1023D00003F002FDCDE900010D9B53B1DDE900459D
:1023E0000022984B2046294603F03EFE002840F08C
:1023F0003585304603F05CFBDDE9002303F0C2FBCA
:10240000914B002203F008FA089B0446A1F1507595
:10241000002B00F00884069B1293089B1093DDE9C3
:1024200000673946304603F05DFE009003F040FB44
:1024300002460B463046394603F0ECF97F4B009AD2
:102440000F461099064603EBC1030B9802993032F0
:10245000CDE90045D5B24C1C53E90223002800F019
:10246000A1840020794903F0B7FCDDE9002303F0E3
:10247000D1F9029B32461D703B46CDE9000103F0C5
:1024800011FE002840F0DE8432463B4600206D49B4
:1024900003F0C0F902460B46DDE9000103F002FE3D
:1024A000002840F03D85109B012B62D0029ACDF8A8
:1024B00040901344CDF84C80DDE90089CDF800B0A0
:1024C000D3469A460EE032463B4600205D4903F073
:1024D000A1F942464B4603F0C7FD002840F0FC84BA
:1024E00054453FD0404649460022594B03F04AFB31
:1024F0000022574B804689463046394603F042FB5E
:102500000F46064603F0EEFD054603F0D1FA0246FB
:102510000B463046394603F07DF93035EDB204F80C
:10252000015B42464B4606460F4603F09DFD0028E0
:10253000C9D0129BDA460133DDF800B00693594644
:10254000504601F019FA00232370079B1A46069B98
:102550001360219B002B3FF4FFAD02981C6017B065
:10256000BDE8F08FDA46DDF84090DDF84C80DDF80C
:1025700000B0DDE90434CDE90034159B002BC0F236
:10258000C680069A0E2A00F3C2802C4B03EBC203CE
:10259000D3E900890A9B002B17DA089F002F14DC6F
:1025A00040F05A8300222B4B4046494603F0EAFA9A
:1025B000DDE9002303F06CFD002800F0D283089FC2
:1025C0003D460A9B029CDB43DEE2DDE900454246D4
:1025D0004B462046294603F0FFFB03F083FD0646E9
:1025E000009003F065FA42464B4603F0CBFA0246F0
:1025F0000B4620462946029C3546303503F00AF941
:10260000069E04F8015B089D0136012D02460B462B
:10261000069652D000220E4B03F0B4FA002200239B
:1026200006460F4603F016FD002888D1CDF800B00D
:102630000125DDF820B0CDF80CA01AE0804A03088F
:10264000704B03080000F03F00001C400000E03F1A
:1026500000002440000014400022BF4B03F092FA17
:102660000022002306460F4603F0F4FC002840F049
:102670006D8342464B463046394603F0ADFB03F0CE
:1026800031FD824603F014FA42464B4603F07AFAD3
:1026900002460B463046394603F0BCF801350AF1D4
:1026A0003006AB4502460B4604F8016BD4D1DDF889
:1026B00000B0CDF800A0DDF80CA01046194603F0DC
:1026C000ABF842464B4606460F4603F0EBFC60B9BA
:1026D00042464B463046394603F0BCFC00283FF4E6
:1026E0002EAF009BD9077FF52AAF14F8015C029A40
:1026F000631E04E09A4200F0D78313F8015D392D80
:1027000003F10104F6D06A1CD2B21A7017E70B9AD3
:10271000002A45D0039A012A40F36382089B5E1E7B
:102720000C9BB342C0F241829E1B089B002BC0F25F
:102730001383099A14461A44984409920121504679
:1027400001F036FA05462EE00123B8F1000F0D9393
:10275000BFF674ADC4F1010309934FF000086FE5B3
:102760001020FDF7E1FDCAF82400002800F0DD8309
:10277000C0E901660660C660C9E4484603F098F9FE
:1027800032463B4603F066FC00287FF43DAD09F17C
:10279000FF3939E5714B0293029817B0BDE8F08F0D
:1027A0000C9E099C0B9D002C0CDDB8F1000F09DD7F
:1027B0004445099A2346A8BF4346D21A0992E41A0F
:1027C000A8EB03080C9BD3B10B9B002B00F07E8180
:1027D000002E10DD29463246504601F0A5FA5A4631
:1027E00001460546504601F0F9F95946074650465C
:1027F00001F0C2F8BB460C9B9A1B40F06881012196
:10280000504601F0D5F9B9F1000F074600F390806A
:10281000039B012B40F3668100260120B9F1000FD4
:1028200040F09180404410F01F0077D0C0F12003A9
:10283000042B40F39A83C0F11C00099B03440993C5
:1028400004448044099B002B05DD59461A46504636
:1028500001F0CCFA8346B8F1000F05DD3946424657
:10286000504601F0C3FA07460D9B002B40F0138140
:10287000089B002B40F3FA800B9B002B7ED1069B1C
:1028800001330693029CDDF82080012607E05946BB
:1028900000230A22504601F095F801368346394656
:1028A0005846FFF785FBB04500F1300004F8010BF6
:1028B000EDDC03464FF000095946012250460093D3
:1028C00001F094FA3946834601F0F4FA002814F82E
:1028D000012C40F37881631E029904E0994200F0D4
:1028E0008D8113F8012D392A03F10104F6D001324C
:1028F0001A703946504601F03FF8002D3FF41FAEE4
:10290000B9F1000F05D0A94503D04946504601F062
:1029100033F82946504601F02FF810E61C208CE7CA
:102920000124A6E4C3F12006009B03FA06F035E477
:1029300001464A46504601F0F7F9039B012B074632
:1029400040F3B98100263B6907EB8303186901F066
:10295000DFF8C0F1200065E700002440F08F030895
:10296000294600230A22504601F02CF80F9B002B29
:10297000054640F3CC82CDF818800893002C00F374
:102980000D81002E40F0CB81A846009B0399029E4A
:1029900003F001020B920A430A92089A731E1A442A
:1029A000099239465846FFF703FB294600905846DE
:1029B00001F080FA424681463946504601F096FAC7
:1029C000009BC26804463033002A41D10146584674
:1029D000089301F06FFA21460490504600F0CCFFB6
:1029E000049A089B1AB90A99002900F07C82B9F16F
:1029F000000F06F10104C0F27581039941EA09094B
:102A00000B9951EA090100F06D81002A00F3AB81B6
:102A1000099A3370B24200F0B281594600230A226B
:102A2000504600F0CFFF4545834629464FF000034E
:102A30004FF00A02504613D000F0C4FF414605464D
:102A400000230A22504600F0BDFF26468046A8E734
:102A500001465046049300F08FFF0122049BC6E715
:102A600000F0B0FF2646054680469AE7039B022BFE
:102A700073DC0B9B002B81D139465846FFF798FA3F
:102A8000069A029C00F130030132069204F8013BE1
:102A90004FF0000910E73946584601F00BFA0028BC
:102AA000BFF6E6AE594600230A22504600F08AFFE0
:102AB000069B03F1FF380B9B8346002B7FF450AF3E
:102AC0000F9B002B40F31C820893DBE60C9A5946BF
:102AD000504601F029F9834691E6AC4B029303334B
:102AE000FFF7E2BBDDE9001200297FF495AEC2F3E7
:102AF0001303002B00F0EA80009E8EE601230B9367
:102B00000A9D002D5ADD0F9508950021172D416073
:102B10007FF71AAC012204235B0003F11406AE42D6
:102B2000114602F10102F7D941600DE401230B9334
:102B30000A9B069A13440F930133012B1D460893F9
:102B4000B8BF0125E1E700230B93F1E700230B93C6
:102B5000D6E70F9B0893CDF81880089B002B7FF4D5
:102B600030AD39460522504600F02CFF014607469D
:102B7000584601F09FF900287FF723AD029C069B81
:102B8000312204F8012B01330133394650460693B4
:102B900000F0F2FE002D7FF4BCAED0E429462246C0
:102BA000504601F023F90546EBE60C9B0C96F31A10
:102BB00099440026B9E50226FFF7F5BB01230A93E5
:102BC0000893FFF7BDBB03D1009BDB073FF583AE46
:102BD000631E01E013F8012D302A03F10104F9D03E
:102BE00087E60E9A002A00F0328103F23343099AF5
:102BF0000C9E14461A44984409929FE5069A0132A5
:102C00000692029A3123137073E6304602F050FFA9
:102C1000DDE9002302F0B6FF00225D4B02F0FCFD6F
:102C20000446A1F1507500225A4BDDE9000102F083
:102C3000F1FD22462B4606460F4603F033FA0028E4
:102C400040F08E80224605F100433046394603F0BD
:102C50000BFA00283FF48DAC00273D46B1E40D90FF
:102C600078E500F0F880069B5C424B4B04F00F02C5
:102C700003EBC203D3E90023DDE9040102F082FF84
:102C80002411CDE9000100F0E680444D0023022626
:102C9000E70705D5D5E9002302F074FF01360123CB
:102CA000641005F10805F3D1002B3FF495ABCDE995
:102CB0000001FFF791BB009B002B7FF443AEDDE9E1
:102CC0000012C2F31303002B7FF43CAE344E1640C7
:102CD000002E3FF4A2AD099B0133099308F10108CE
:102CE00001269AE50699002A01F10101069112DDFB
:102CF000594601225046039301F078F8394683463D
:102D000001F0D8F80028039B40F3E080392B00F055
:102D1000D280009B3133A94633704546E9E56968A6
:102D2000504600F0E9FD0446002800F004812B69BC
:102D300002339A0005F10C010C30FDF705FB21462A
:102D40000122504601F052F880461EE6DDF800B040
:102D5000DDF80CA0FFF7F3BBDDE908239C1AEDE4D6
:102D600000273D460AE7069A392B02F10102069236
:102D700000F0A1800133A94633704546B9E5069AB3
:102D80000132A9460692454696E500BF8898030899
:102D900000001C4000001440804A0308704B0308E8
:102DA0000000F07FDDE9000102F0ECFE029B1D70E7
:102DB000109B012BCDE9000123D0109B029ACDF886
:102DC00040901344C14698460022714B3046394624
:102DD00002F0D8FE0F46064603F084F9054602F0DD
:102DE00067FE303502460B463046394602F012FD8A
:102DF00004F8015B444506460F46E5D1C846DDF8B8
:102E00004090644B0022DDE9000102F005FD3246EE
:102E10003B4603F029F9002852D1DDE900230020C8
:102E20005C4902F0F7FC32463B4603F03BF90028D0
:102E30003FF49FAB00E0144614F8013C302B04F142
:102E4000FF32F8D0129B01330693FFF778BB149B37
:102E5000C3F13603CBE60226FFF7BEBA089B002B70
:102E60003FF4D3AE0F9F002F7FF783AB0022484B78
:102E70002046294602F086FE04460D46701CCDE928
:102E8000004502F015FE22462B4602F07BFE424B27
:102E9000002202F0C1FC069B1097013B0446A1F101
:102EA00050751293FFF7BBBA069A0132069231228F
:102EB0001A70FFF744BB3922A946327045460AE52D
:102EC000129B0133069314F8015C10E47FF423AFE6
:102ED000DA077FF520AF19E7129B0133DA46069334
:102EE000DDF800B003E4069A392B02F101020692E4
:102EF00006F10104DFD0B9F1000F3FF70AAF0AE78E
:102F0000039B022B3FF725AECDF81880B4E5039B59
:102F1000022B3FF71EAE0F9BCDF8188008932DE5CE
:102F2000129B01330693FFF7E2BB02461B4B1C4882
:102F3000EA21FDF789F902461A4B194840F2EA21C5
:102F4000FDF782F9002444602146504600F0D4FC8D
:102F5000029078B9134B124800224FF4D571FDF757
:102F600073F9114B0293FFF7F7B83FF46BACC0F164
:102F70003C0062E4DAF82430029919604FF0FF3225
:102F8000012308920A940F920B93FFF7F6BA00BF41
:102F9000000024400000E03F00001C408C98030823
:102FA000A4980308D89803087C9803088B891A070B
:102FB0002DE9F0410C46804641D44A68002A59DD8B
:102FC000E66A002E53D00022D8F80050216AC8F8D3
:102FD000002013F4805251D101234046B047431CD6
:102FE0005FD0A389E66A216A5F0705D56268636BD3
:102FF000801A0BB1236CC01A024600234046B0472A
:10300000461C45D1D8F80030B4F90C20002B55D01F
:103010001D2B01D0162B5AD123690022C4E900329E
:10302000616BC8F8005011B304F14403994202D017
:103030004046FDF7DBFA00206063BDE8F0810E69D1
:10304000AEB10D680E6099070CBF63690023AD1B1C
:10305000A3600AE02B463246A76A216A4046B84779
:103060000028A5EB000506440ADD002DF2DC002057
:10307000BDE8F0810A6C002AA2DCF8E7606DB3E7D6
:10308000A38943F04003A3814FF0FF30BDE8F081F6
:103090002269A389226000226260DA04C0D56065DB
:1030A000BEE7D8F80030002B9BD01D2B0CD0162B80
:1030B0000AD0A38943F04003A381D9E72169C4E979
:1030C0000013D304ACD5EAE7C8F80050CFE742F0CC
:1030D0004002A281CCE700BF0B6923B310B50446C0
:1030E00082B008B18369BBB1104B994212D0104B2A
:1030F000994216D00F4B994208BFE168B1F90C30E4
:103100002BB1204602B0BDE81040FFF74FBF0020B2
:1031100002B010BD6168F1E7019100F007F9019973
:10312000E2E7A168EAE70020704700BF4C4A0308C5
:103130002C4A03080C4A030820B1054B01461868C5
:10314000FFF7CABF034B0449186800F0B9BA00BFC3
:1031500000000020084A0308D9300008002070470A
:10316000014900F0ADBA00BFD93000080020704717
:1031700070B54A1E682505FB02F50E4605F174017F
:10318000FDF78AFA044640B100210C30666005F173
:1031900068022160A060FDF7D9F9204670BD00BF2C
:1031A0001E4B70B51D68AB69064643B34835D5E97B
:1031B0000134013B05D51EE0013B5A1C04F16804B3
:1031C00019D0B4F90C20002AF6D10025144B6566FD
:1031D000C4E90055A560C4E90455A5612946E3602A
:1031E000082204F15C00FDF7B1F9C4E90D55C4E90A
:1031F0001255204670BD2C682CB12546D7E72846CD
:1032000000F010F8D2E704213046FFF7B1FF044682
:1032100028600028F1D10C233360EAE7084A03084C
:103220000100FFFF2DE9F84F334B34491A688162E2
:1032300090424FF00003C0E91233036504BF01233D
:1032400083610546FFF7ACFF68602846FFF7A8FFDB
:10325000A8602846FFF7A4FF6E68E86000240423F6
:10326000F3607466C6E90044B460C6E90444B4611E
:10327000214606F15C000822FDF768F9DFF888B006
:10328000AF68DFF888A0DFF88890DFF888801C4BF3
:10329000C6F83080C6E9086BC6E90AA92146FB607A
:1032A00008227C66C7E90044BC60C7E90444BC61ED
:1032B00007F15C00FDF74AF9EE68124BC7F8308061
:1032C000C7E9087BC7E90AA92146F3607466C6E925
:1032D0000044B460C6E90444B46106F15C0008220D
:1032E000FDF734F90123C6E9086BC6E90AA9C6F857
:1032F0003080AB61BDE8F88F084A030861310008EF
:1033000009000100120002002117000849170008F7
:1033100089170008A9170008024B0349186800F034
:10332000CFB900BF084A0308D9300008836903B940
:1033300078E77047704700BF704700BF704700BF15
:10334000704700BF024B0349186800F093B900BFF3
:10335000000000205D310008024B0349186800F0AE
:1033600089B900BF000000206D3100089368002B70
:1033700000F002812DE9F04FB1F90C309BB20C4600
:10338000190783B08246904635D522699AB313F067
:103390000202D8F800603DD00027D4F828B0D4F855
:1033A00020C0DFF8CC923D464D452B463A4628BF1B
:1033B0004B4661465046D5B1D847002840F3D280ED
:1033C000D8F808301B1A07442D1AC8F80830002B0B
:1033D00000F0B780D4F820C0D4F828B04D452B4673
:1033E0003A4628BF4B4661465046002DE4D1D6E907
:1033F00000750836D8E721465046FEF73FFD002805
:1034000040F03081B4F90C30D8F800609BB213F072
:103410000202C1D113F0010940F0B080A768206812
:103420004D46002D54D09A0540F1BC80AF42BB46BA
:1034300000F2E78013F4906F2FD0D4E9041707EB64
:103440004707A0EB010B07EBD777681C7F105844A8
:10345000B8423A4684BF07463A465B0540F1E980E8
:1034600011465046FDF718F9002800F0F5805A463D
:1034700021690190FCF768FFA289019B22F4906208
:1034800042F08002A281A7EB0B0203EB0B00676105
:1034900023612060A2602F46AB465A464946FCF79E
:1034A000EDFFA2682368D21B5B442F46A260236015
:1034B0000025D8F80830DB1BB944C8F80830002BC9
:1034C0003FD0B4F90C30A76820689BB2002DAAD178
:1034D000D6E900950836A4E70BF1080353E9026723
:1034E0009B460833002FF9D03A460A21304600F0B7
:1034F000AFF9002853D00130A0EB06094B46D4E9C0
:1035000004122068BB4228BF3B46884203D9A56805
:103510001544AB4219DC9A427DDC1346A56A216A48
:1035200032465046A847051E1CDDB9EB05096BD095
:103530000120D8F808305B1B2E447F1BC8F80830E8
:1035400013BB002003B0BDE8F08F31462A46FCF7DC
:1035500095FF23682B44236021465046FFF7BCFDAE
:103560000028E2D0B4F90C3043F040034FF0FF30B4
:10357000A38103B0BDE8F08F002070473346914629
:10358000104617464E469B46002FA5D00028B5D1C1
:103590003A460A21304600F05BF90028ABD17B1C8B
:1035A0009946ACE72369834215D36169A94212D8D1
:1035B0002E4BA76A9D4294BF2B466FF000434A46AC
:1035C00093FBF1F3504601FB03F3216AB847071E52
:1035D000C8DDED1B6DE7AF4228BF2F463A4649468E
:1035E000FCF74CFFA3682268DB1B3A44A36022600F
:1035F000002BEED121465046FFF76EFD0028E8D0A3
:10360000B0E72F46AB4648E721465046FFF764FD3A
:1036100000288ED0A6E71A4631460193FCF72EFF0C
:10362000019BA1682268C91A1A44A16022601D4644
:103630007BE7504600F08AFE034600287FF423AF64
:1036400021695046FCF7D2FFB4F90C300C2223F06C
:103650008003CAF8002087E70C23CAF80030B4F9C9
:103660000C3081E74FF0FF306CE700BFFEFFFF7FBB
:1036700000FCFF7F2DE9F04110F148071BD0884680
:103680000026D7E90154013D0FD4A389012B05F190
:10369000FF3506D9B4F90E300133204601D0C047BA
:1036A00006436B1C04F16804EFD13F68002FE8D19A
:1036B0003046BDE8F0813E463046BDE8F08100BFAF
:1036C0002DE9F84310F148071FD0884606464FF011
:1036D0000009D7E90154013D11D4A389012B05F15B
:1036E000FF3508D9B4F90E3001332146304602D0F7
:1036F000C04749EA00096B1C04F16804EDD13F683A
:10370000002FE6D14846BDE8F883B9464846BDE8F3
:10371000F88300BFF0307047004870475401002024
:10372000004870475401002070B50D46084C114602
:1037300006461A4628460023236002F0CFFE431CAB
:1037400000D070BD2368002BFBD0336070BD00BF7C
:1037500098FA002070B50C46B1F90E10002996B009
:1037600016461D4613DB6A4601F0E4FE00280EDB18
:10377000019A02F47042A2F50052B2FA82F25209A2
:103780004FF4806300202A60336016B070BDA389B7
:1037900000221B062A6004D540230020336016B0A7
:1037A00070BD4FF480630020336016B070BD00BF61
:1037B0008A8992070B4606D501F1470201211A605A
:1037C000C3E90421704770B582B001AB6A460C466C
:1037D0000646FFF7BFFF009905463046FCF75CFF41
:1037E000B4F90C3070B11649B162019A00992060A9
:1037F00043F08003A381C4E904018AB92B43A38168
:1038000002B070BD9A05FBD423F0030304F1470214
:1038100043F002030121A3812260C4E90421EFE700
:103820003046B4F90E1001F099FE10B9B4F90C301D
:10383000E4E7A38923F0030343F001031BB2DDE7B0
:1038400061310008000000000000000000000000DE
:1038500001F0FF01102A2BDB10F0070F08D010F841
:10386000013B013A8B422DD010F0070F42B3F6D145
:10387000F0B441EA012141EA014122F007047FF05E
:1038800000070023F0E80256083C85EA010586EAB5
:10389000010685FA47F5A3FA87F586FA47F6A5FAF1
:1038A00087F68EB9EED1F0BC01F0FF0102F00702FD
:1038B00032B110F8013B013A83EA010313B1F8D1A8
:1038C0000020704701387047002D06BF3546033889
:1038D000073815F0010F07D1013015F4807F02BFC2
:1038E000013015F4C03F0130F0BC0138704700BF13
:1038F000704700BF704700BF70B5446A06460D466A
:103900005CB1E368A3B153F82500E8B1026843F85D
:1039100025200023C0E9033370BD1020FCF704FD0F
:1039200004467062E8B10023C0E901330360C3605C
:1039300021220421304600F0FBFC736AE060DB6862
:10394000002BE0D1002070BD012101FA05F4621DB9
:103950003046920000F0ECFC0028F3D0C0E901549E
:10396000D7E70246024B03486621FCF76DFC00BF17
:103970008C980308EC98030830B5456A83B0044678
:1039800055B139B1636A4A68DB6853F822000860B0
:1039900043F8221003B030BD10200191FCF7C4FCA5
:1039A0000199606220B1C0E901550560C560E8E792
:1039B0000246024B02488A21FCF746FC8C98030819
:1039C000EC980308F0B50C6983B00D46064601F18A
:1039D000140C0027DCF8000081B202FB0133190C43
:1039E000000C02FB00109BB2013703EB0043BC420A
:1039F0004CF8043B4FEA1043ECDC3BB1AA68A2420E
:103A000007DD05EB8402013453612C61284603B0C5
:103A1000F0BD6968019330460131FFF76DFF019BEE
:103A20000746A0B12A6901930232920005F10C0108
:103A30000C30FCF789FC294630463D46FFF79CFFD9
:103A400005EB8402019B536101342C61DEE70246E1
:103A5000024B0348B521FCF7F7FB00BFD8980308D9
:103A6000EC9803082DE9F843264C089E1D460833C0
:103A700084FB034C092D4FEAE373904607460C463E
:103A8000C3EB6C0236DD012300215B009A4201F199
:103A90000101FADC3846FFF72FFF68B30123B8F1C4
:103AA000090FC0E9043613DC0A344FF00908454514
:103AB0000CDDA5EB0805254414F8013B0146303B1D
:103AC0000A223846FFF77EFFA542F5D1BDE8F8830C
:103AD00004F109094E46444416F8013B0146303BC7
:103AE0000A223846FFF76EFFB442F5D1A8F1080468
:103AF0004C44DCE70021CDE70246034B0348CE21CE
:103B0000FCF7A2FB398EE338D8980308EC98030839
:103B1000020C12040346CAB90304102013F07F4FAD
:103B200004BF1B02083013F0704F04BF1B010430A8
:103B300013F0404F04BF9B000230002B05DB13F055
:103B4000804F00F1010008BF202070470020E5E70A
:103B5000036813F00702014607D0DA0720D498075C
:103B600022D55B080B600120704798B2B0B91B0CDE
:103B7000102013F0FF0F04BF1B0A08301A0704BF00
:103B80001B0904309A0704BF9B080230DA0703D4EC
:103B90005B0800F1010005D00B6070471046E8E7B4
:103BA00000207047202070479B080B600220704760
:103BB00010B50C460121FFF79FFE024618B1012304
:103BC000C0E9043410BD034B03484FF4A071FCF767
:103BD0003BFB00BFD8980308EC9803082DE9F04F91
:103BE0000E691769BE4283B00C46154605DB3A469E
:103BF0002B4637460D4616461C46D5E9011307EB02
:103C000006084345B8BF0131FFF776FE0090002853
:103C10007FD0009B03F1140A0AEB8809CA4505D23C
:103C20005346002143F8041B9945FBD804F1140EB8
:103C30000EEB860B05F11403DE4503EB870753D229
:103C4000CDF80480984605E0090C28D1F3450AF127
:103C5000040A47D95EF8041B8EB2002EF4D0454604
:103C60005446002355F8041B20688AB21FFA80FCD2
:103C700006FB02C2090C000C134406FB010202EB16
:103C800013429BB243EA0243AF4244F8043B4FEA7B
:103C90001243E7D823605EF8041C090CD6D0DAF88A
:103CA000003040461A4654464FF0000C0588120C6E
:103CB00001FB052294449BB243EA0C4344F8043BC5
:103CC00050F8043B22681B0C95B201FB035303EB35
:103CD0001C4387424FEA134CE8D8F34523600AF1AE
:103CE000040AB7D8DDF80480B8F1000F0BDD59F8ED
:103CF000043CA9F104091BB105E059F8043D13B9CE
:103D0000B8F10108F9D10098C0F8108003B0BDE8FF
:103D1000F08F0246024B034840F25D11FCF794FA23
:103D2000D8980308EC9803082DE9F04312F0030338
:103D300083B0144607462DD10E46A4101CD07A6AD3
:103D40008AB39568002D39D0E3074FF0000906D4F7
:103D5000641011D0286898B10546E307F8D53146BC
:103D60002A463846FFF73AFF314680463846FFF785
:103D700003FE64104646EDD1304603B0BDE8F08343
:103D80002A4629463846FFF729FF2860C0F80090E8
:103D90000546E2E7013B124A52F823200023FFF7D1
:103DA00011FE0646C9E71020FCF7BEFA024678620B
:103DB00080B10023C0E901330360C36040F2712188
:103DC00038460192FFF7F4FE019A00239060054601
:103DD0000360B9E7034B04484FF4D771FCF734FA9A
:103DE000704A03088C980308EC9803082DE9F04703
:103DF0000E690D464FEA621AD1E901135644741C4C
:103E00009C429146074604DD5B009C4201F10101A2
:103E1000FADC3846FFF770FD804600283FD0BAF143
:103E2000000F00F114000EDD0AF1050A4FEA8A0ABC
:103E300008EB0A010346002243F8042B8B42FBD116
:103E4000AAF1140A5044296905F1140319F01F0955
:103E500003EB810C1BD0C9F1200E0022196801FA76
:103E600009F1114340F8041B53F8042B9C4522FA36
:103E70000EF2F3D80260002A18BF26463846C8F86A
:103E800010602946FFF778FD4046BDE8F08704380A
:103E900053F8042B40F8042F9C45F9D8EEE702466E
:103EA000024B034840F2D911FCF7CEF9D898030829
:103EB000EC98030830B40B6905460069C01A10D1AC
:103EC0009B001435143119442B4401E09D4208D263
:103ED00053F8044D51F8042D9442F7D003D24FF01B
:103EE000FF3030BC7047012030BC70472DE9F843EB
:103EF00016460B691269A3EB0208B8F1000F0D46D4
:103F000067D1920001F1140706F11401BB181144A6
:103F100001E09F4261D253F8042D51F8044DA242B2
:103F2000F7D050D36968FFF7E7FC00285FD02F690E
:103F30003369C0F80C8006F11402143505EB870CC8
:103F400002EB830E00F11406002100E0264652F831
:103F5000044B55F8048B1FFA84F911FA88F3210CED
:103F6000A3EB0903C1EB184101EB234134469BB29B
:103F700043EA014396454FEA214144F8043BA846F1
:103F8000E4D8AC4516D9264658F8042B11FA82F32A
:103F9000191401EB12419BB243EA0143C44546F8B0
:103FA000043B4FEA2141EFD80CF1FF36761B26F097
:103FB0000306264423B956F8043D013F002BFAD0EE
:103FC0000761BDE8F8832B464FF0010835461E46D1
:103FD000A8E7F8DB4FF00008A4E70021FFF78CFC0E
:103FE00060B101220023C0E90423BDE8F883024642
:103FF000064B07484FF41071FCF726F90246034BB5
:10400000034840F23221FCF71FF900BFD89803089B
:10401000EC980308124B10EE902A1A40A2F150734C
:10402000002B04DD0020194641EC100B70475B4269
:104030001B15132B07DC4FF40022002042FA03F17A
:1040400041EC100B7047143B1E2BDABF4FF00042BF
:1040500022FA03F301230021184641EC100B7047AC
:104060000000F07FF8B5046900F1140606EB840443
:1040700054F8045C2846FFF74BFDC0F120030A28E2
:104080000B60A4F1040131DD8E42A0F10B001AD2C5
:1040900054F8081C10B3C0F12007854021FA07F33B
:1040A0001D4345F07F53A4F10805AE4201FA00F02C
:1040B00043F4401303D254F80C1CF9400843024661
:1040C00043EC102BF8BD40B105FA00F040F07F53EF
:1040D000002043F440130246F2E7014645F07F53C7
:1040E00043F440130A4643EC102BF8BD8E42C0F156
:1040F0000B0738BF54F8081C25FA07FC00F115001F
:104100004CF07F5334BFF940002105FA00F043F42E
:10411000401340EA010243EC102BF8BD2DE9F043B7
:10412000884683B00121154657EC106BFFF7E4FB7E
:104130000446002850D0C7F30A59C7F31303B9F156
:10414000000F01D043F48013002E019325D0684660
:104150000096FFF7FDFC00283AD0DDE90013C0F11E
:10416000200203FA02F20A43C34001936261002B6A
:1041700014BF02210121A3612161B9F1000F17D001
:10418000A9F2334909EB0003C0F13500C8F800304B
:104190002860204603B0BDE8F08301A8FFF7D8FCF3
:1041A000019B6361012120302161B9F1000FE7D14A
:1041B00004EB8103A0F23240C8F800001869FFF751
:1041C000A7FCC0EB41102860204603B0BDE8F08397
:1041D000DDE900236261CAE70246034B034840F26F
:1041E0000A31FCF731F800BFD8980308EC980308AF
:1041F0002DE9F04383B0884669468146FFF732FFD8
:10420000404601A955EC104BFFF72CFFDDE90013E8
:10421000D9F81020D8F81000CB1A121A03EB421369
:10422000002B57EC106B0DDD05EB03594D46324664
:104230003B462046294601F0CFFD41EC100B03B070
:10424000BDE8F083C3EB033307EB03510F46EEE702
:104250001728D0B504460CDD0A490B4F0020002674
:1042600032463B4601F08EFC013CF9D141EC100B8B
:10427000D0BD064B03EBC004D4E9040141EC100BA4
:10428000D0BD00BF0000F03F00002440704A03088A
:1042900070B414694E1E02F11403761103EB84010D
:1042A00001368B4200EB86060CD2041F53F8045BE8
:1042B00044F8045F9942F9D88B1A153B23F00303A5
:1042C00004331844864204D9002340F8043B864254
:1042D000FBD870BC704700BF03694A11934210B409
:1042E00000F1140410DA04EB83039C421ED253F84D
:1042F000040C043B18B115E053F8042D92B99C420C
:10430000FAD35DF8044B704704EB8203EDDD11F046
:104310001F01EAD054F8220020FA01F202FA01F15A
:104320008842E2D001205DF8044B70470020E8E7A6
:1043300038B502FB01F42146FCF7AEF9054618B189
:1043400022460021FCF702F9284638BD09B3F8B52A
:104350001446CAB106460D4601F032F9A04202D316
:104360002F463846F8BD21463046FCF795F90746FA
:104370000028F6D022462946FBF7E6FF30462946BC
:10438000FCF734F93846F8BD2746FCF72FF93846D4
:10439000F8BD1146FCF780B92DE9F0478E681D463F
:1043A000AE420C460B68174636D88046888910F412
:1043B000906F0ED1354618462A463946FCF75EF80E
:1043C000A2682368961B2B44A66023600020BDE8EA
:1043D000F087D1E9041606EB4606A3EB010906EBCC
:1043E000D6766B1C76104B44B342324684BF1E46D1
:1043F0003246430512D511464046FCF74DF9824638
:1044000000B34A462169FBF79FFFA38923F4906319
:1044100043F08003A38106E02E46CCE74046FFF739
:1044200095FF824650B1A6EB09020AEB09036661CB
:10443000C4F810A02360A2602E46BCE72169404664
:10444000FCF7D4F80C23C8F80030A38943F04003EC
:10445000A3814FF0FF30BAE72DE9F04F936883B0A6
:104460009046002B6DD017688D6882460C46086810
:10447000083743E0A38913F4906F2ED0D4E90415D4
:1044800005EB4505A0EB010B05EBD5750BEB060025
:104490006D100130A8422A4684BF05462A465B05B6
:1044A00036D511465046FCF7F7F800283AD05A4660
:1044B00021690190FBF748FFA289019B22F49062D9
:1044C00042F08002A281A5EB0B0203EB0B006561B9
:1044D00023612060A2603546B3465A464946FBF741
:1044E000CDFFD8F80830A2682068551B58449E1BA1
:1044F000A5602060C8F808601EB3083757E9029627
:10450000AB46002EF9D0AE42B4D23546B346E4E70E
:104510005046FFF71BFF03460028D4D121695046BF
:10452000FCF764F80C23CAF80030A389002243F09A
:1045300040034FF0FF30A381C8E9012203B0BDE87A
:10454000F08F0020C8F8040003B0BDE8F08F00BF72
:104550002DE9F04F90468A899FB014068B46029051
:1045600003D50A69002A00F00B81059330238DF8EA
:10457000323098F800308E4E002120220B918DF8B9
:1045800031200127002B00F08480252B00F0F680DD
:10459000454603E0252B00F0868025466B786C1C91
:1045A000002BF7D1B4EB080A73D042465346594664
:1045B0000298FFF7F1FE01306BD00B9B6A785344F1
:1045C0000B93002A65D000234FF0FF32013406938D
:1045D000CDE908338DF85B301C93079205E0069A0D
:1045E00007FA03F313432C4606932546052215F8D4
:1045F000011B3046FFF72CF9AA46831B0028EED199
:10460000069BD90644BF20228DF85B2021781A072B
:1046100044BF2B228DF85B202A2948D1059A1168C6
:104620000432002905927EDB09916178A51C2E29B0
:1046300056D0604C03222046FFF70AF9002868D0C4
:10464000001B069B402404FA00F00343069305F187
:104650000108297858488DF830100622FFF7F8F83D
:10466000002866D0554B002B56D005AB00935A4618
:10467000534B029806A9FCF7E9FA8146B9F1FF3FCE
:1046800007D00B9B4B440B9398F80030002B7FF422
:104690007CAFBBF80C305B0654BF0B984FF0FF307B
:1046A0001FB0BDE8F08FB4EB080A8CD07DE7A1F114
:1046B0003002092A88BFA246B9D8099B01E02C46DE
:1046C0000135297803EB830302EB4303A1F13002A8
:1046D000092AAA46F3D92E2904F102050993A8D183
:1046E0009AF801102A292ED1059B9AF802101A680F
:1046F00007920433002A05930AF103050AF1020325
:1047000037DB2C4C032220469A46FFF7A1F80028FD
:1047100096D1A84655469CE7059B073323F007032F
:1047200008330593ADE7494243F00203099106932C
:104730007BE705AB00935A46214B029806A9FCF78C
:10474000B3FD81469AE7A1F130020023092A0793BD
:1047500001D923E05546697803EB830302EB430359
:10476000A1F13002092A05F1010AF3D902350793B4
:104770005FE74FF0FF329A4607925AE7444622E736
:1047800040210393FBF788FF039BCBF80000CBF895
:10479000100030B14022CBF81420E6E6AA460135DD
:1047A00047E7029A0C2313604FF0FF3078E700BF11
:1047B00030980308389803083C9803084D0C00080B
:1047C000994300084B1C70B51AD09389546B5668F6
:1047D00023F02003CDB29381ACB1936BB342144666
:1047E00009DD23685A1E226003F8015C6368013307
:1047F0006360284670BD114600F0E2FD0028F0D04D
:104800004FF0FF35F5E7136911682BB18B4203D2E6
:1048100011F8013CAB420ED0134602F144040320D0
:10482000D163C2E90D40166403F8465F0121C2E975
:104830000031284670BD01390136C2E90016D8E7BB
:1048400010B50C46496B69B104F14403994201D09B
:10485000FBF7CCFE236C63600020606313B1E36B55
:10486000236010BDA3892269226043F02003002247
:10487000A38162604FF0FF3010BD00BF2DE9F04F03
:104880000025ADF5237DCDE94455884CDFF828C2DD
:10489000874EDFF820A2A0940DF1040907460C46CC
:1048A0009046CDF884C2CDF81891009398F800B0E6
:1048B000BBF1000F11D016F80B2012F0080208F11E
:1048C000010540F0D180BBF1250F20D06268002A9D
:1048D00008DD2268117859450FD044980DF5237DE5
:1048E000BDE8F08FA19A214638469047002840F055
:1048F0000781226811785945EFD16168459B0132E3
:10490000013901332260A84661604593CEE74392A6
:10491000419298F801102A2905D11022419298F865
:10492000021008F10205A1F13002092A0CD8002278
:1049300002EB820201EB4202303A439215F8011F6A
:10494000A1F130000928F3D903225A48FEF780FF6D
:10495000691C002800F0A180419BA0EB0A00012205
:1049600082401A4305F1020841920A78782A00F23F
:104970002C81DFE812F095002A012A012A012A0180
:104980002A012A012A012A012A012A012A012A01CF
:104990002A012A012A012A012A012A012A012A01BF
:1049A0002A012A012A012A012A012A012A012A01AF
:1049B0002A012A012A012A012A012A012A012A019F
:1049C00098002A012A012A012A012A012A012A0122
:1049D0002A012A012A012A012A012A012A012A017F
:1049E0002A012A012A012A012A012A012A012A016F
:1049F0002A012A012A012A012A012A012A012A015F
:104A0000F800F800F8002A012A012A012A012A01E7
:104A10002A012A012A012A012A012A012A012A013E
:104A20002A012A012A0118012A012A011A012A0150
:104A30002A012A012A012A012A012A01A300E700EA
:104A4000F800F800F8002A0106012A012A012A01CB
:104A50002A010A012601FB002A012A0104012A0178
:104A6000E7002A012A01180163680CE02268137824
:104A7000F35C19070FD54599636801320131013B99
:104A8000226045916360002B21463846EEDCA19BF5
:104A900098470028EAD0A84608E78846294664E7F0
:104AA0004FF0FF301AE7454610E700BFC547000842
:104AB000A54B03083898030841480008419B002291
:104AC00043F04003419347926368002B44DD419BD0
:104AD0005B0623D5479B022B7CDD042B40F38180B2
:104AE000434B002B3FF4E2AE6B46224641A93846C9
:104AF000AFF3008001283FF4F0AE02287FF4D6AE79
:104B000044980028CCD0A38913F0400F18BF4FF071
:104B1000FF30E3E6A19B98470028F1D125682B7868
:104B2000F35C13F0080F05F10105D3D06368459AD3
:104B3000013B0132002B2146384645926360E9DD96
:104B40002560ECE70A2342936F2A34BF0323042332
:104B500047936368002BBADCA19B214638469847EF
:104B60000028B4D0CCE705234793ADE7419B43F041
:104B7000200343F400731021CDE94131E4E702231F
:104B8000E6E7002342930323E2E7419BDA063FF581
:104B90008DAE009A4599101D0090DD0713684CBF3B
:104BA0001980196082E6419BE3E74146484600F0E0
:104BB000A3F9419B012243F0400380464193479271
:104BC00082E7082342930423C2E703220A23479281
:104BD000429379E76B46224641A9384600F00AF82D
:104BE00088E76B46224641A9384600F063F881E722
:104BF000000000002DE9F8430D4689688046144600
:104C0000A86929B9002814BF4FF0FF320122AA6019
:104C10002A68D70603D41A68111D19601668244F34
:104C20004FF00009F8B1012836D0022824D12368BA
:104C30001A78D25D12071FD42A68D10609F101093A
:104C400003D41B7806F8013B23686168AA68013326
:104C50000139013AC4E90031AA606AB1002904DDD2
:104C6000A8690028DFD12368E6E7D5F8803121461E
:104C7000404698470028F3D02B6813F0100305D165
:104C8000EA68A9690132EA6001B133702B694B44CB
:104C90002B610020BDE8F88323686A691978525CAB
:104CA000002AC9D1B9F1000FE6D1BDE8F88300BFF1
:104CB000A54B03082DE9F04F0C46804FDFF8089212
:104CC0007F4E87B08046154697E80700A768009397
:104CD000A36907F1FF3C032B18BFB14603ABBCF53A
:104CE000AE7FCDF8049083E8070040F2A88040F240
:104CF0005D126FF4AE7007EB000BA260A1469A46FE
:104D000059F81C2B42F4506222604E4600272B6853
:104D10005AF8040B19780222FEF79AFDA8B1012F68
:104D200000F08280022F00F0A780A3685A1EA260C4
:104D30005BB12B685A1C2A601B7806F8013B6B6834
:104D4000013B002B6B6040F38D800137032FDED1D8
:104D50006168002976D0C1F110015A4B606919448D
:104D600000F0CAF8A368002B00F0A580D5F800C0B9
:104D700062699CF80000175C3FB3002761460BE0B6
:104D80002B6801332B60A368013BA360EBB129685A
:104D900062690878125CC2B1D4F800C0302832468B
:104DA0002CF4106E52D0C4F800E00B7802F8013BEE
:104DB00016466B68013B002B294640466B60DFDCE2
:104DC000D4F8803198470028DDD02268D1050CD571
:104DD0004E4507D916F8011CD4F87C312A464046C6
:104DE0009847013E4E4564D0226812F0100211D15E
:104DF00032706368019D40464946A84723689A0679
:104E000047D500990B681A1D0A601B681860E36893
:104E10000133E3602369A6EB090637441F44276189
:104E2000002007B0BDE8F08FD4E900321AB908229B
:104E3000626043F4007323F4A063236075E74FF0CE
:104E4000000B5BE70A236360062186E71CF4006F12
:104E5000A9D001330137BBF1000FAAD00BF1FF3B02
:104E6000A360A6E7D4F88031294640469847002839
:104E70003FF46BAF0027A8E7236803F4C062B2F5E4
:104E8000007F7FF465AF43F4807323601023636079
:104E90004BE7009D2A6813F0010F02F1040103D0D3
:104EA000296013681880B2E7009B196013681860C6
:104EB000ADE70120B5E71F4687E700BF984B030821
:104EC0008D530008209903081952000870B50D464B
:104ED000084C114606461A4628460023236001F076
:104EE000D5FA431C00D070BD2368002BFBD0336083
:104EF00070BD00BF98FA002070B40C785E2C064696
:104F000020D00022481C1546731E06F1FF0103F84D
:104F1000012F8B42FBD194B185F001033355411C25
:104F200011F8012C2D2A01F1FF3508460FD05D2A1A
:104F300003D00AB11446F1E7284670BC7047013827
:104F400070BC704701224C781546881CDCE70D7850
:104F50005D2DEFD0AC42EDDC32190134A54202F8F0
:104F6000013FFADC0231DBE710B580210446FBF794
:104F700093FB606440B1031F00227C3043F8042F90
:104F80008342FBD1002010BD4FF0FF3010BD00BFA9
:104F9000436C0BB100207047E6E700BF1F2970B5D6
:104FA000054608D8436C16460C464BB153F824000E
:104FB00043F8246070BD162202604FF0FF3070BDD0
:104FC000FFF7D2FF08B96B6CF0E74FF0FF3070BD10
:104FD0001F2938B521D8426C05460C466AB152F8F3
:104FE000213053B1012B16D0591C10D0002520467A
:104FF00042F824509847284638BD284600F070F8FB
:10500000224601462846BDE8384000F055B8162330
:105010000360012038BD002038BD162303604FF027
:10502000FF3038BD1F2921D838B5436C05460C46E2
:1050300083B153F8242003EB84034AB1511C10D0F0
:10504000012A0CD0002520461D609047284638BD17
:10505000012038BDFFF788FF28B96B6CE9E7032012
:1050600038BD022038BD4FF0FF3038BD4FF0FF3063
:10507000704700BF024B01461868FFF7A9BF00BF89
:1050800000000020024B0A4601461868FFF786BF61
:1050900000000020034B1868436C0BB100207047E0
:1050A00062E700BF00000020024B01461868FFF7CE
:1050B000B9BF00BF0000002038B50B46074C0546BD
:1050C000114618460023236001F0D2F9431C00D09A
:1050D00038BD2368002BFBD02B6038BD98FA002028
:1050E00001F0C4B9012B2DE9F84F41D0242B98468B
:1050F0003ED80F46DFF81CC100E02F463D4615F8AC
:10510000014B1CF8046016F00806F6D12D2C6CD06B
:105110002B2C0ABF95F800B0A346BD1C002B46D02F
:10512000102B57D0002E14BF4FF000496FF00049EC
:105130000027B9FBF8FEBC4608FB1E9A07E0E645CF
:1051400013D32FD00CFB084C012715F801BBABF192
:105150003004092C05D9ABF14104192C0FD8ABF15F
:105160003704A34213DD002FE9DA4FF0FF37ECE7F5
:10517000FBF78EF8162303600020BDE8F88FABF133
:105180006104192C03D8ABF15704A342EBDC002FC8
:1051900025DB0EB1CCF1000C0AB177BB1160604683
:1051A000BDE8F88FA245CDDA4FF0FF37CDE7BBF170
:1051B000300F03D04FF00A084346B3E72B7803F0D3
:1051C000DF03582B1BD14FF0100895F801B0434670
:1051D0000235A7E7BBF1300F15D09846A2E722238E
:1051E00003603AB1691ECC46D8E795F800B00126B5
:1051F000BD1C93E7CC466046D2E7E146F2E74FF0AC
:10520000080843468EE72C7804F0DF04582CDAD0E7
:10521000984687E7A54B030864E700BF10B4044C29
:1052200013460A46014620685DF8044B5AE700BF62
:105230000000002010B4044C13460A4601462068C2
:105240005DF8044B4EE700BF000000202DE9F04759
:105250000F464C4D00E06746BC461CF8014B2E5DE6
:1052600016F00806F7D12D2C58D02B2C0ABF9CF82D
:105270000050254607F1020CF3B3102B54D04FF029
:10528000FF38B8FBF3F803FB08FA6FEA0A0A9946FD
:105290000027BE4607E0C64513D828D009FB0E4EAE
:1052A00001271CF8015BA5F13004092C05D9A5F1F3
:1052B0004104192C08D8A5F13704A3420CDD002FB6
:1052C000E9DA4FF0FF37ECE7A5F16104192C03D8B8
:1052D000A5F15704A342F2DC002F16DB0EB1CEF18C
:1052E000000E0AB1BFB911607046BDE8F0875445A1
:1052F000D4DD4FF0FF37D4E7302D29D00A2399466B
:105300004FF0050ADFF88080C2E7222303604FF0E8
:10531000FF3E002AE8D00CF1FF31E4E79CF8005092
:10532000012607F1020CA7E7302D24D19CF800409C
:1053300004F0DF04582C18D14FF010099CF80150EC
:105340004B464FF00F0A0CF1020C6FF070489FE7CC
:105350009CF8003003F0DF03582BEDD0082399466A
:105360004FF0070A6FF0604892E799466FF0704877
:105370004FF00F0A8CE74FF00F0A6FF07048994614
:1053800086E700BFA54B0308999999195EE700BF0E
:1053900010B4044C13460A46014620685DF8044BDD
:1053A00054E700BF0000002010B4044C13460A4626
:1053B000014620685DF8044B48E700BF000000206C
:1053C00001F144032DE9F0410C46496B994214D098
:1053D000A66B77003A46FEF7B9FF054640B300EBEF
:1053E0000608324640462946FAF7AEFFC4E90D5793
:1053F000C4F800800020BDE8F0814FF48061FBF725
:105400004BF9A8B194F846304FF48062C4E90D021C
:1054100080F8FF3394F8453080F8FE3394F8443038
:1054200080F8FD3300F2FD3020600020BDE8F081FF
:105430004FF0FF30DFE700BF70B54C1C68D00E4660
:105440001446054610B18369002B2FD0324B9C4285
:1054500031D0324B9C4230D0314B9C4208BFEC687B
:10546000B4F90C3023F020039AB25007A38106D47C
:10547000D1064DD512073AD443F00403A381626BE1
:105480006368F6B2DAB1A26B9A4205DC284621467F
:10549000FFF796FF00283BD123685A1E226003F8CD
:1054A000016C636801336360304670BDFDF73EFFF9
:1054B000194B9C42CDD16C68D2E7AC68D0E7226929
:1054C00021682AB18A4203D211F8012CB2421AD0C3
:1054D000224604F1440023640323C4E90D03E1637D
:1054E00002F8466F0123C4E90023304670BD21460F
:1054F0002846FDF7F1FD58B9B4F90C30A060A06161
:1055000023F00803B8E701390133C4E90013CBE7FE
:105510004FF0FF36C8E700BF4C4A03082C4A030887
:105520000C4A0308024B0A4601461868FFF784BF7D
:105530000000002038B50B46074C054611461846BA
:105540000023236000F0C2FF431C00D038BD236855
:10555000002BFBD02B6038BD98FA002038B5074CE3
:10556000002305460846236000F0B6FF431C00D028
:1055700038BD2368002BFBD02B6038BD98FA002083
:1055800010B4034CD4F8E440A4465DF8044B6047E3
:105590006400002082B049B15AB16BB113780B603E
:1055A0001278101C18BF012002B0704701A9002A10
:1055B000F3D1104602B070476FF00100F4E700BF6E
:1055C00051F8043C181F002BBCBF0B58C018704783
:1055D00010B4034CD4F8E040A4465DF8044B604797
:1055E0006400002049B1FF2A02D80A7001207047E8
:1055F0008A2303604FF0FF3070470846704700BFB2
:1056000038B52DED028B55EC104B00F033F8184BEC
:10561000B0EE408AF0EE608A93F9003001330DD08D
:1056200022462B462046294600F046FD30B920464A
:1056300029460022002300F017FD30B9B0EE480AD9
:10564000F0EE680ABDEC028B38BDFAF721FE0022AD
:105650000023212101601046194600F0BDFB41ECFA
:10566000180BB0EE480AF0EE680ABDEC028B38BDAC
:10567000D00100202DE9F041634955EC104BA943BE
:1056800000F09F80002D2B4610EE102A52DD5FEABD
:10569000255E00F0B180C3F31303AEF2FF3E43F486
:1056A0008013D10F1EF0010F01EB43034FEA4204B8
:1056B00003D0E40F04EB430394004FF0000C4FEAD7
:1056C0006E0E664616254FF40012B118994202DCA0
:1056D0005B1A8E1894445B00013D03EBD4734FEAD0
:1056E00052024FEA4404F0D12F4620204FF00042EE
:1056F00009E041D0E10F01384FEA520201EB4303C8
:105700004FEA440441D0B34202EB0501F1DD002928
:1057100001EB020509DBB0469B1BA14288BF03F1E8
:10572000FF33641A17444646E4E7002DF3DB06F125
:105730000108F1E725F00041214339D0002D50D177
:10574000D40A153B52052146002CF9D0E50256D467
:10575000002000E028464900CC0200F10105F9D5FF
:105760000C461146AA40C5F1200521FA05F5A3EB28
:10577000000E45EA04038EE7A142BBD8002901EBE5
:105780000205D2DB98460023CBE7234312D17808E9
:105790004FEA6C0101F17F511CF0010F01F500117E
:1057A00018BF40F0004001EB0E53024643EC102BB3
:1057B000BDE8F0817B1C16BF781C0CF1010C400881
:1057C000E6E710EE102A2B4610EE100A294600F0EC
:1057D000D9F922462B4600F01FF841EC100BBDE82A
:1057E000F0812046294600F015F802460B4600F0ED
:1057F000F3FA41EC100BDBE729467346A8E71146A4
:1058000020254FF0FF30B0E70000F07F81F000412D
:1058100002E000BF83F0004330B54FEA41044FEA95
:10582000430594EA050F08BF90EA020F1FBF54EA30
:10583000000C55EA020C7FEA645C7FEA655C00F0CC
:10584000E2804FEA5454D4EB5555B8BF6D420CDD9D
:105850002C4480EA020281EA030382EA000083EA20
:10586000010180EA020281EA0303362D88BF30BDC0
:1058700011F0004F4FEA01314FF4801C4CEA113116
:1058800002D0404261EB410113F0004F4FEA033375
:105890004CEA133302D0524263EB430394EA050F00
:1058A00000F0A780A4F10104D5F1200E0DDB02FA6F
:1058B0000EFC22FA05F2801841F1000103FA0EF203
:1058C000801843FA05F359410EE0A5F120050EF1C9
:1058D000200E012A03FA0EFC28BF4CF0020C43FAFA
:1058E00005F3C01851EBE37101F0004507D54FF007
:1058F000000EDCF1000C7EEB00006EEB0101B1F557
:10590000801F1BD3B1F5001F0CD349085FEA30009C
:105910004FEA3C0C04F101044FEA445212F5800FA7
:1059200080F09A80BCF1004F08BF5FEA500C50F144
:10593000000041EB045141EA050130BD5FEA4C0C27
:10594000404141EB0101013C28BFB1F5801FE9D284
:1059500091F0000F04BF01460020B1FA81F308BFA7
:105960002033A3F10B03B3F120020CDA0C3208DD73
:1059700002F1140CC2F10C0201FA0CF021FA02F14E
:105980000CE002F11402D8BFC2F1200C01FA02F1BE
:1059900020FA0CFCDCBF41EA0C019040E41AA2BFE3
:1059A00001EB0451294330BD6FEA04041F3C1CDAAB
:1059B0000C340EDC04F11404C4F1200220FA04F0CB
:1059C00001FA02F340EA030021FA04F345EA030175
:1059D00030BDC4F10C04C4F1200220FA02F001FA37
:1059E00004F340EA0300294630BD21FA04F02946B9
:1059F00030BD94F0000F83F4801306BF81F4801152
:105A00000134013D4EE77FEA645C18BF7FEA655CC4
:105A100029D094EA050F08BF90EA020F05D054EA96
:105A2000000C04BF1946104630BD91EA030F1EBF9B
:105A30000021002030BD5FEA545C05D1400049419F
:105A400028BF41F0004130BD14F580043CBF01F592
:105A5000801130BD01F0004545F0FE4141F4700178
:105A60004FF0000030BD7FEA645C1ABF1946104653
:105A70007FEA655C1CBF0B46024650EA013406BF54
:105A800052EA033591EA030F41F4002130BD00BF13
:105A900090F0000F04BF0021704730B54FF48064D0
:105AA00004F132044FF000054FF0000150E700BF51
:105AB00090F0000F04BF0021704730B54FF48064B0
:105AC00004F1320410F0004548BF40424FF000019D
:105AD0003EE700BF42004FEAE2014FEA31014FEAE0
:105AE00002701FBF12F07F4393F07F4F81F060512F
:105AF000704732F07F4208BF704793F07F4F04BF7A
:105B000041F40021704730B54FF4607401F0004556
